{
	"Smart contracts/assessment.sol": {
		"SimpleBank": {
			"abi": [
				{
					"anonymous": false,
					"inputs": [
						{
							"indexed": true,
							"internalType": "address",
							"name": "user",
							"type": "address"
						},
						{
							"indexed": false,
							"internalType": "uint256",
							"name": "amount",
							"type": "uint256"
						}
					],
					"name": "Deposit",
					"type": "event"
				},
				{
					"anonymous": false,
					"inputs": [
						{
							"indexed": true,
							"internalType": "address",
							"name": "user",
							"type": "address"
						},
						{
							"indexed": false,
							"internalType": "uint256",
							"name": "amount",
							"type": "uint256"
						}
					],
					"name": "Withdraw",
					"type": "event"
				},
				{
					"inputs": [],
					"name": "deposit",
					"outputs": [],
					"stateMutability": "payable",
					"type": "function"
				},
				{
					"inputs": [],
					"name": "getBalance",
					"outputs": [
						{
							"internalType": "uint256",
							"name": "",
							"type": "uint256"
						}
					],
					"stateMutability": "view",
					"type": "function"
				},
				{
					"inputs": [
						{
							"internalType": "uint256",
							"name": "amount",
							"type": "uint256"
						}
					],
					"name": "withdraw",
					"outputs": [],
					"stateMutability": "nonpayable",
					"type": "function"
				}
			],
			"devdoc": {
				"kind": "dev",
				"methods": {},
				"version": 1
			},
			"evm": {
				"assembly": "    /* \"Smart contracts/assessment.sol\":61:815  contract SimpleBank{... */\n  mstore(0x40, 0x80)\n  callvalue\n  dup1\n  iszero\n  tag_1\n  jumpi\n  0x00\n  dup1\n  revert\ntag_1:\n  pop\n  dataSize(sub_0)\n  dup1\n  dataOffset(sub_0)\n  0x00\n  codecopy\n  0x00\n  return\nstop\n\nsub_0: assembly {\n        /* \"Smart contracts/assessment.sol\":61:815  contract SimpleBank{... */\n      mstore(0x40, 0x80)\n      jumpi(tag_1, lt(calldatasize, 0x04))\n      shr(0xe0, calldataload(0x00))\n      dup1\n      0x12065fe0\n      eq\n      tag_2\n      jumpi\n      dup1\n      0x2e1a7d4d\n      eq\n      tag_3\n      jumpi\n      dup1\n      0xd0e30db0\n      eq\n      tag_4\n      jumpi\n    tag_1:\n      0x00\n      dup1\n      revert\n        /* \"Smart contracts/assessment.sol\":718:812  function getBalance()public view returns(uint256){... */\n    tag_2:\n      callvalue\n      dup1\n      iszero\n      tag_5\n      jumpi\n      0x00\n      dup1\n      revert\n    tag_5:\n      pop\n      tag_6\n      tag_7\n      jump\t// in\n    tag_6:\n      mload(0x40)\n      tag_8\n      swap2\n      swap1\n      tag_9\n      jump\t// in\n    tag_8:\n      mload(0x40)\n      dup1\n      swap2\n      sub\n      swap1\n      return\n        /* \"Smart contracts/assessment.sol\":463:712  function withdraw(uint256 amount)public{... */\n    tag_3:\n      callvalue\n      dup1\n      iszero\n      tag_10\n      jumpi\n      0x00\n      dup1\n      revert\n    tag_10:\n      pop\n      tag_11\n      0x04\n      dup1\n      calldatasize\n      sub\n      dup2\n      add\n      swap1\n      tag_12\n      swap2\n      swap1\n      tag_13\n      jump\t// in\n    tag_12:\n      tag_14\n      jump\t// in\n    tag_11:\n      stop\n        /* \"Smart contracts/assessment.sol\":254:457  function deposit()public payable{... */\n    tag_4:\n      tag_15\n      tag_16\n      jump\t// in\n    tag_15:\n      stop\n        /* \"Smart contracts/assessment.sol\":718:812  function getBalance()public view returns(uint256){... */\n    tag_7:\n        /* \"Smart contracts/assessment.sol\":759:766  uint256 */\n      0x00\n        /* \"Smart contracts/assessment.sol\":785:792  balance */\n      dup1\n        /* \"Smart contracts/assessment.sol\":785:804  balance[msg.sender] */\n      0x00\n        /* \"Smart contracts/assessment.sol\":793:803  msg.sender */\n      caller\n        /* \"Smart contracts/assessment.sol\":785:804  balance[msg.sender] */\n      0xffffffffffffffffffffffffffffffffffffffff\n      and\n      0xffffffffffffffffffffffffffffffffffffffff\n      and\n      dup2\n      mstore\n      0x20\n      add\n      swap1\n      dup2\n      mstore\n      0x20\n      add\n      0x00\n      keccak256\n      sload\n        /* \"Smart contracts/assessment.sol\":778:804  return balance[msg.sender] */\n      swap1\n      pop\n        /* \"Smart contracts/assessment.sol\":718:812  function getBalance()public view returns(uint256){... */\n      swap1\n      jump\t// out\n        /* \"Smart contracts/assessment.sol\":463:712  function withdraw(uint256 amount)public{... */\n    tag_14:\n        /* \"Smart contracts/assessment.sol\":542:548  amount */\n      dup1\n        /* \"Smart contracts/assessment.sol\":521:528  balance */\n      0x00\n        /* \"Smart contracts/assessment.sol\":521:540  balance[msg.sender] */\n      dup1\n        /* \"Smart contracts/assessment.sol\":529:539  msg.sender */\n      caller\n        /* \"Smart contracts/assessment.sol\":521:540  balance[msg.sender] */\n      0xffffffffffffffffffffffffffffffffffffffff\n      and\n      0xffffffffffffffffffffffffffffffffffffffff\n      and\n      dup2\n      mstore\n      0x20\n      add\n      swap1\n      dup2\n      mstore\n      0x20\n      add\n      0x00\n      keccak256\n      sload\n        /* \"Smart contracts/assessment.sol\":521:548  balance[msg.sender]>=amount */\n      lt\n      iszero\n        /* \"Smart contracts/assessment.sol\":513:622  require(balance[msg.sender]>=amount,'you can not withdraw with that amount how about you deposit some more?') */\n      tag_19\n      jumpi\n      mload(0x40)\n      0x08c379a000000000000000000000000000000000000000000000000000000000\n      dup2\n      mstore\n      0x04\n      add\n      tag_20\n      swap1\n      tag_21\n      jump\t// in\n    tag_20:\n      mload(0x40)\n      dup1\n      swap2\n      sub\n      swap1\n      revert\n    tag_19:\n        /* \"Smart contracts/assessment.sol\":654:660  amount */\n      dup1\n        /* \"Smart contracts/assessment.sol\":633:640  balance */\n      0x00\n        /* \"Smart contracts/assessment.sol\":633:652  balance[msg.sender] */\n      dup1\n        /* \"Smart contracts/assessment.sol\":641:651  msg.sender */\n      caller\n        /* \"Smart contracts/assessment.sol\":633:652  balance[msg.sender] */\n      0xffffffffffffffffffffffffffffffffffffffff\n      and\n      0xffffffffffffffffffffffffffffffffffffffff\n      and\n      dup2\n      mstore\n      0x20\n      add\n      swap1\n      dup2\n      mstore\n      0x20\n      add\n      0x00\n      keccak256\n      0x00\n        /* \"Smart contracts/assessment.sol\":633:660  balance[msg.sender]-=amount */\n      dup3\n      dup3\n      sload\n      tag_22\n      swap2\n      swap1\n      tag_23\n      jump\t// in\n    tag_22:\n      swap3\n      pop\n      pop\n      dup2\n      swap1\n      sstore\n      pop\n        /* \"Smart contracts/assessment.sol\":685:695  msg.sender */\n      caller\n        /* \"Smart contracts/assessment.sol\":676:704  Withdraw(msg.sender, amount) */\n      0xffffffffffffffffffffffffffffffffffffffff\n      and\n      0x884edad9ce6fa2440d8a54cc123490eb96d2768479d49ff9c7366125a9424364\n        /* \"Smart contracts/assessment.sol\":697:703  amount */\n      dup3\n        /* \"Smart contracts/assessment.sol\":676:704  Withdraw(msg.sender, amount) */\n      mload(0x40)\n      tag_24\n      swap2\n      swap1\n      tag_9\n      jump\t// in\n    tag_24:\n      mload(0x40)\n      dup1\n      swap2\n      sub\n      swap1\n      log2\n        /* \"Smart contracts/assessment.sol\":463:712  function withdraw(uint256 amount)public{... */\n      pop\n      jump\t// out\n        /* \"Smart contracts/assessment.sol\":254:457  function deposit()public payable{... */\n    tag_16:\n        /* \"Smart contracts/assessment.sol\":316:317  0 */\n      0x00\n        /* \"Smart contracts/assessment.sol\":305:314  msg.value */\n      callvalue\n        /* \"Smart contracts/assessment.sol\":305:317  msg.value>=0 */\n      lt\n      iszero\n        /* \"Smart contracts/assessment.sol\":297:362  require(msg.value>=0,'the amount of money can not go below zero') */\n      tag_26\n      jumpi\n      mload(0x40)\n      0x08c379a000000000000000000000000000000000000000000000000000000000\n      dup2\n      mstore\n      0x04\n      add\n      tag_27\n      swap1\n      tag_28\n      jump\t// in\n    tag_27:\n      mload(0x40)\n      dup1\n      swap2\n      sub\n      swap1\n      revert\n    tag_26:\n        /* \"Smart contracts/assessment.sol\":394:403  msg.value */\n      callvalue\n        /* \"Smart contracts/assessment.sol\":373:380  balance */\n      0x00\n        /* \"Smart contracts/assessment.sol\":373:392  balance[msg.sender] */\n      dup1\n        /* \"Smart contracts/assessment.sol\":381:391  msg.sender */\n      caller\n        /* \"Smart contracts/assessment.sol\":373:392  balance[msg.sender] */\n      0xffffffffffffffffffffffffffffffffffffffff\n      and\n      0xffffffffffffffffffffffffffffffffffffffff\n      and\n      dup2\n      mstore\n      0x20\n      add\n      swap1\n      dup2\n      mstore\n      0x20\n      add\n      0x00\n      keccak256\n      0x00\n        /* \"Smart contracts/assessment.sol\":373:403  balance[msg.sender]+=msg.value */\n      dup3\n      dup3\n      sload\n      tag_29\n      swap2\n      swap1\n      tag_30\n      jump\t// in\n    tag_29:\n      swap3\n      pop\n      pop\n      dup2\n      swap1\n      sstore\n      pop\n        /* \"Smart contracts/assessment.sol\":427:437  msg.sender */\n      caller\n        /* \"Smart contracts/assessment.sol\":419:449  Deposit(msg.sender, msg.value) */\n      0xffffffffffffffffffffffffffffffffffffffff\n      and\n      0xe1fffcc4923d04b559f4d29a8bfc6cda04eb5b0d3c460751c2402c5c5cc9109c\n        /* \"Smart contracts/assessment.sol\":439:448  msg.value */\n      callvalue\n        /* \"Smart contracts/assessment.sol\":419:449  Deposit(msg.sender, msg.value) */\n      mload(0x40)\n      tag_31\n      swap2\n      swap1\n      tag_9\n      jump\t// in\n    tag_31:\n      mload(0x40)\n      dup1\n      swap2\n      sub\n      swap1\n      log2\n        /* \"Smart contracts/assessment.sol\":254:457  function deposit()public payable{... */\n      jump\t// out\n        /* \"#utility.yul\":7:84   */\n    tag_32:\n        /* \"#utility.yul\":44:51   */\n      0x00\n        /* \"#utility.yul\":73:78   */\n      dup2\n        /* \"#utility.yul\":62:78   */\n      swap1\n      pop\n        /* \"#utility.yul\":7:84   */\n      swap2\n      swap1\n      pop\n      jump\t// out\n        /* \"#utility.yul\":90:208   */\n    tag_33:\n        /* \"#utility.yul\":177:201   */\n      tag_48\n        /* \"#utility.yul\":195:200   */\n      dup2\n        /* \"#utility.yul\":177:201   */\n      tag_32\n      jump\t// in\n    tag_48:\n        /* \"#utility.yul\":172:175   */\n      dup3\n        /* \"#utility.yul\":165:202   */\n      mstore\n        /* \"#utility.yul\":90:208   */\n      pop\n      pop\n      jump\t// out\n        /* \"#utility.yul\":214:436   */\n    tag_9:\n        /* \"#utility.yul\":307:311   */\n      0x00\n        /* \"#utility.yul\":345:347   */\n      0x20\n        /* \"#utility.yul\":334:343   */\n      dup3\n        /* \"#utility.yul\":330:348   */\n      add\n        /* \"#utility.yul\":322:348   */\n      swap1\n      pop\n        /* \"#utility.yul\":358:429   */\n      tag_50\n        /* \"#utility.yul\":426:427   */\n      0x00\n        /* \"#utility.yul\":415:424   */\n      dup4\n        /* \"#utility.yul\":411:428   */\n      add\n        /* \"#utility.yul\":402:408   */\n      dup5\n        /* \"#utility.yul\":358:429   */\n      tag_33\n      jump\t// in\n    tag_50:\n        /* \"#utility.yul\":214:436   */\n      swap3\n      swap2\n      pop\n      pop\n      jump\t// out\n        /* \"#utility.yul\":523:640   */\n    tag_35:\n        /* \"#utility.yul\":632:633   */\n      0x00\n        /* \"#utility.yul\":629:630   */\n      dup1\n        /* \"#utility.yul\":622:634   */\n      revert\n        /* \"#utility.yul\":769:891   */\n    tag_37:\n        /* \"#utility.yul\":842:866   */\n      tag_55\n        /* \"#utility.yul\":860:865   */\n      dup2\n        /* \"#utility.yul\":842:866   */\n      tag_32\n      jump\t// in\n    tag_55:\n        /* \"#utility.yul\":835:840   */\n      dup2\n        /* \"#utility.yul\":832:867   */\n      eq\n        /* \"#utility.yul\":822:885   */\n      tag_56\n      jumpi\n        /* \"#utility.yul\":881:882   */\n      0x00\n        /* \"#utility.yul\":878:879   */\n      dup1\n        /* \"#utility.yul\":871:883   */\n      revert\n        /* \"#utility.yul\":822:885   */\n    tag_56:\n        /* \"#utility.yul\":769:891   */\n      pop\n      jump\t// out\n        /* \"#utility.yul\":897:1036   */\n    tag_38:\n        /* \"#utility.yul\":943:948   */\n      0x00\n        /* \"#utility.yul\":981:987   */\n      dup2\n        /* \"#utility.yul\":968:988   */\n      calldataload\n        /* \"#utility.yul\":959:988   */\n      swap1\n      pop\n        /* \"#utility.yul\":997:1030   */\n      tag_58\n        /* \"#utility.yul\":1024:1029   */\n      dup2\n        /* \"#utility.yul\":997:1030   */\n      tag_37\n      jump\t// in\n    tag_58:\n        /* \"#utility.yul\":897:1036   */\n      swap3\n      swap2\n      pop\n      pop\n      jump\t// out\n        /* \"#utility.yul\":1042:1371   */\n    tag_13:\n        /* \"#utility.yul\":1101:1107   */\n      0x00\n        /* \"#utility.yul\":1150:1152   */\n      0x20\n        /* \"#utility.yul\":1138:1147   */\n      dup3\n        /* \"#utility.yul\":1129:1136   */\n      dup5\n        /* \"#utility.yul\":1125:1148   */\n      sub\n        /* \"#utility.yul\":1121:1153   */\n      slt\n        /* \"#utility.yul\":1118:1237   */\n      iszero\n      tag_60\n      jumpi\n        /* \"#utility.yul\":1156:1235   */\n      tag_61\n      tag_35\n      jump\t// in\n    tag_61:\n        /* \"#utility.yul\":1118:1237   */\n    tag_60:\n        /* \"#utility.yul\":1276:1277   */\n      0x00\n        /* \"#utility.yul\":1301:1354   */\n      tag_62\n        /* \"#utility.yul\":1346:1353   */\n      dup5\n        /* \"#utility.yul\":1337:1343   */\n      dup3\n        /* \"#utility.yul\":1326:1335   */\n      dup6\n        /* \"#utility.yul\":1322:1344   */\n      add\n        /* \"#utility.yul\":1301:1354   */\n      tag_38\n      jump\t// in\n    tag_62:\n        /* \"#utility.yul\":1291:1354   */\n      swap2\n      pop\n        /* \"#utility.yul\":1247:1364   */\n      pop\n        /* \"#utility.yul\":1042:1371   */\n      swap3\n      swap2\n      pop\n      pop\n      jump\t// out\n        /* \"#utility.yul\":1377:1546   */\n    tag_39:\n        /* \"#utility.yul\":1461:1472   */\n      0x00\n        /* \"#utility.yul\":1495:1501   */\n      dup3\n        /* \"#utility.yul\":1490:1493   */\n      dup3\n        /* \"#utility.yul\":1483:1502   */\n      mstore\n        /* \"#utility.yul\":1535:1539   */\n      0x20\n        /* \"#utility.yul\":1530:1533   */\n      dup3\n        /* \"#utility.yul\":1526:1540   */\n      add\n        /* \"#utility.yul\":1511:1540   */\n      swap1\n      pop\n        /* \"#utility.yul\":1377:1546   */\n      swap3\n      swap2\n      pop\n      pop\n      jump\t// out\n        /* \"#utility.yul\":1552:1846   */\n    tag_40:\n        /* \"#utility.yul\":1692:1726   */\n      0x796f752063616e206e6f74207769746864726177207769746820746861742061\n        /* \"#utility.yul\":1688:1689   */\n      0x00\n        /* \"#utility.yul\":1680:1686   */\n      dup3\n        /* \"#utility.yul\":1676:1690   */\n      add\n        /* \"#utility.yul\":1669:1727   */\n      mstore\n        /* \"#utility.yul\":1761:1795   */\n      0x6d6f756e7420686f772061626f757420796f75206465706f73697420736f6d65\n        /* \"#utility.yul\":1756:1758   */\n      0x20\n        /* \"#utility.yul\":1748:1754   */\n      dup3\n        /* \"#utility.yul\":1744:1759   */\n      add\n        /* \"#utility.yul\":1737:1796   */\n      mstore\n        /* \"#utility.yul\":1830:1838   */\n      0x206d6f72653f0000000000000000000000000000000000000000000000000000\n        /* \"#utility.yul\":1825:1827   */\n      0x40\n        /* \"#utility.yul\":1817:1823   */\n      dup3\n        /* \"#utility.yul\":1813:1828   */\n      add\n        /* \"#utility.yul\":1806:1839   */\n      mstore\n        /* \"#utility.yul\":1552:1846   */\n      pop\n      jump\t// out\n        /* \"#utility.yul\":1852:2218   */\n    tag_41:\n        /* \"#utility.yul\":1994:1997   */\n      0x00\n        /* \"#utility.yul\":2015:2082   */\n      tag_66\n        /* \"#utility.yul\":2079:2081   */\n      0x46\n        /* \"#utility.yul\":2074:2077   */\n      dup4\n        /* \"#utility.yul\":2015:2082   */\n      tag_39\n      jump\t// in\n    tag_66:\n        /* \"#utility.yul\":2008:2082   */\n      swap2\n      pop\n        /* \"#utility.yul\":2091:2184   */\n      tag_67\n        /* \"#utility.yul\":2180:2183   */\n      dup3\n        /* \"#utility.yul\":2091:2184   */\n      tag_40\n      jump\t// in\n    tag_67:\n        /* \"#utility.yul\":2209:2211   */\n      0x60\n        /* \"#utility.yul\":2204:2207   */\n      dup3\n        /* \"#utility.yul\":2200:2212   */\n      add\n        /* \"#utility.yul\":2193:2212   */\n      swap1\n      pop\n        /* \"#utility.yul\":1852:2218   */\n      swap2\n      swap1\n      pop\n      jump\t// out\n        /* \"#utility.yul\":2224:2643   */\n    tag_21:\n        /* \"#utility.yul\":2390:2394   */\n      0x00\n        /* \"#utility.yul\":2428:2430   */\n      0x20\n        /* \"#utility.yul\":2417:2426   */\n      dup3\n        /* \"#utility.yul\":2413:2431   */\n      add\n        /* \"#utility.yul\":2405:2431   */\n      swap1\n      pop\n        /* \"#utility.yul\":2477:2486   */\n      dup2\n        /* \"#utility.yul\":2471:2475   */\n      dup2\n        /* \"#utility.yul\":2467:2487   */\n      sub\n        /* \"#utility.yul\":2463:2464   */\n      0x00\n        /* \"#utility.yul\":2452:2461   */\n      dup4\n        /* \"#utility.yul\":2448:2465   */\n      add\n        /* \"#utility.yul\":2441:2488   */\n      mstore\n        /* \"#utility.yul\":2505:2636   */\n      tag_69\n        /* \"#utility.yul\":2631:2635   */\n      dup2\n        /* \"#utility.yul\":2505:2636   */\n      tag_41\n      jump\t// in\n    tag_69:\n        /* \"#utility.yul\":2497:2636   */\n      swap1\n      pop\n        /* \"#utility.yul\":2224:2643   */\n      swap2\n      swap1\n      pop\n      jump\t// out\n        /* \"#utility.yul\":2649:2829   */\n    tag_42:\n        /* \"#utility.yul\":2697:2774   */\n      0x4e487b7100000000000000000000000000000000000000000000000000000000\n        /* \"#utility.yul\":2694:2695   */\n      0x00\n        /* \"#utility.yul\":2687:2775   */\n      mstore\n        /* \"#utility.yul\":2794:2798   */\n      0x11\n        /* \"#utility.yul\":2791:2792   */\n      0x04\n        /* \"#utility.yul\":2784:2799   */\n      mstore\n        /* \"#utility.yul\":2818:2822   */\n      0x24\n        /* \"#utility.yul\":2815:2816   */\n      0x00\n        /* \"#utility.yul\":2808:2823   */\n      revert\n        /* \"#utility.yul\":2835:3029   */\n    tag_23:\n        /* \"#utility.yul\":2875:2879   */\n      0x00\n        /* \"#utility.yul\":2895:2915   */\n      tag_72\n        /* \"#utility.yul\":2913:2914   */\n      dup3\n        /* \"#utility.yul\":2895:2915   */\n      tag_32\n      jump\t// in\n    tag_72:\n        /* \"#utility.yul\":2890:2915   */\n      swap2\n      pop\n        /* \"#utility.yul\":2929:2949   */\n      tag_73\n        /* \"#utility.yul\":2947:2948   */\n      dup4\n        /* \"#utility.yul\":2929:2949   */\n      tag_32\n      jump\t// in\n    tag_73:\n        /* \"#utility.yul\":2924:2949   */\n      swap3\n      pop\n        /* \"#utility.yul\":2973:2974   */\n      dup3\n        /* \"#utility.yul\":2970:2971   */\n      dup3\n        /* \"#utility.yul\":2966:2975   */\n      sub\n        /* \"#utility.yul\":2958:2975   */\n      swap1\n      pop\n        /* \"#utility.yul\":2997:2998   */\n      dup2\n        /* \"#utility.yul\":2991:2995   */\n      dup2\n        /* \"#utility.yul\":2988:2999   */\n      gt\n        /* \"#utility.yul\":2985:3022   */\n      iszero\n      tag_74\n      jumpi\n        /* \"#utility.yul\":3002:3020   */\n      tag_75\n      tag_42\n      jump\t// in\n    tag_75:\n        /* \"#utility.yul\":2985:3022   */\n    tag_74:\n        /* \"#utility.yul\":2835:3029   */\n      swap3\n      swap2\n      pop\n      pop\n      jump\t// out\n        /* \"#utility.yul\":3035:3263   */\n    tag_43:\n        /* \"#utility.yul\":3175:3209   */\n      0x74686520616d6f756e74206f66206d6f6e65792063616e206e6f7420676f2062\n        /* \"#utility.yul\":3171:3172   */\n      0x00\n        /* \"#utility.yul\":3163:3169   */\n      dup3\n        /* \"#utility.yul\":3159:3173   */\n      add\n        /* \"#utility.yul\":3152:3210   */\n      mstore\n        /* \"#utility.yul\":3244:3255   */\n      0x656c6f77207a65726f0000000000000000000000000000000000000000000000\n        /* \"#utility.yul\":3239:3241   */\n      0x20\n        /* \"#utility.yul\":3231:3237   */\n      dup3\n        /* \"#utility.yul\":3227:3242   */\n      add\n        /* \"#utility.yul\":3220:3256   */\n      mstore\n        /* \"#utility.yul\":3035:3263   */\n      pop\n      jump\t// out\n        /* \"#utility.yul\":3269:3635   */\n    tag_44:\n        /* \"#utility.yul\":3411:3414   */\n      0x00\n        /* \"#utility.yul\":3432:3499   */\n      tag_78\n        /* \"#utility.yul\":3496:3498   */\n      0x29\n        /* \"#utility.yul\":3491:3494   */\n      dup4\n        /* \"#utility.yul\":3432:3499   */\n      tag_39\n      jump\t// in\n    tag_78:\n        /* \"#utility.yul\":3425:3499   */\n      swap2\n      pop\n        /* \"#utility.yul\":3508:3601   */\n      tag_79\n        /* \"#utility.yul\":3597:3600   */\n      dup3\n        /* \"#utility.yul\":3508:3601   */\n      tag_43\n      jump\t// in\n    tag_79:\n        /* \"#utility.yul\":3626:3628   */\n      0x40\n        /* \"#utility.yul\":3621:3624   */\n      dup3\n        /* \"#utility.yul\":3617:3629   */\n      add\n        /* \"#utility.yul\":3610:3629   */\n      swap1\n      pop\n        /* \"#utility.yul\":3269:3635   */\n      swap2\n      swap1\n      pop\n      jump\t// out\n        /* \"#utility.yul\":3641:4060   */\n    tag_28:\n        /* \"#utility.yul\":3807:3811   */\n      0x00\n        /* \"#utility.yul\":3845:3847   */\n      0x20\n        /* \"#utility.yul\":3834:3843   */\n      dup3\n        /* \"#utility.yul\":3830:3848   */\n      add\n        /* \"#utility.yul\":3822:3848   */\n      swap1\n      pop\n        /* \"#utility.yul\":3894:3903   */\n      dup2\n        /* \"#utility.yul\":3888:3892   */\n      dup2\n        /* \"#utility.yul\":3884:3904   */\n      sub\n        /* \"#utility.yul\":3880:3881   */\n      0x00\n        /* \"#utility.yul\":3869:3878   */\n      dup4\n        /* \"#utility.yul\":3865:3882   */\n      add\n        /* \"#utility.yul\":3858:3905   */\n      mstore\n        /* \"#utility.yul\":3922:4053   */\n      tag_81\n        /* \"#utility.yul\":4048:4052   */\n      dup2\n        /* \"#utility.yul\":3922:4053   */\n      tag_44\n      jump\t// in\n    tag_81:\n        /* \"#utility.yul\":3914:4053   */\n      swap1\n      pop\n        /* \"#utility.yul\":3641:4060   */\n      swap2\n      swap1\n      pop\n      jump\t// out\n        /* \"#utility.yul\":4066:4257   */\n    tag_30:\n        /* \"#utility.yul\":4106:4109   */\n      0x00\n        /* \"#utility.yul\":4125:4145   */\n      tag_83\n        /* \"#utility.yul\":4143:4144   */\n      dup3\n        /* \"#utility.yul\":4125:4145   */\n      tag_32\n      jump\t// in\n    tag_83:\n        /* \"#utility.yul\":4120:4145   */\n      swap2\n      pop\n        /* \"#utility.yul\":4159:4179   */\n      tag_84\n        /* \"#utility.yul\":4177:4178   */\n      dup4\n        /* \"#utility.yul\":4159:4179   */\n      tag_32\n      jump\t// in\n    tag_84:\n        /* \"#utility.yul\":4154:4179   */\n      swap3\n      pop\n        /* \"#utility.yul\":4202:4203   */\n      dup3\n        /* \"#utility.yul\":4199:4200   */\n      dup3\n        /* \"#utility.yul\":4195:4204   */\n      add\n        /* \"#utility.yul\":4188:4204   */\n      swap1\n      pop\n        /* \"#utility.yul\":4223:4226   */\n      dup1\n        /* \"#utility.yul\":4220:4221   */\n      dup3\n        /* \"#utility.yul\":4217:4227   */\n      gt\n        /* \"#utility.yul\":4214:4250   */\n      iszero\n      tag_85\n      jumpi\n        /* \"#utility.yul\":4230:4248   */\n      tag_86\n      tag_42\n      jump\t// in\n    tag_86:\n        /* \"#utility.yul\":4214:4250   */\n    tag_85:\n        /* \"#utility.yul\":4066:4257   */\n      swap3\n      swap2\n      pop\n      pop\n      jump\t// out\n\n    auxdata: 0xa26469706673582212201e73045bb84aa087ce259fbf28fa9873b2dde98f919423555021950134a456a464736f6c634300081a0033\n}\n",
				"bytecode": {
					"linkReferences": {},
					"object": "6080604052348015600e575f80fd5b506105828061001c5f395ff3fe608060405260043610610033575f3560e01c806312065fe0146100375780632e1a7d4d14610061578063d0e30db014610089575b5f80fd5b348015610042575f80fd5b5061004b610093565b60405161005891906102f5565b60405180910390f35b34801561006c575f80fd5b506100876004803603810190610082919061033c565b6100d6565b005b6100916101f8565b005b5f805f3373ffffffffffffffffffffffffffffffffffffffff1673ffffffffffffffffffffffffffffffffffffffff1681526020019081526020015f2054905090565b805f803373ffffffffffffffffffffffffffffffffffffffff1673ffffffffffffffffffffffffffffffffffffffff1681526020019081526020015f20541015610155576040517f08c379a000000000000000000000000000000000000000000000000000000000815260040161014c9061040d565b60405180910390fd5b805f803373ffffffffffffffffffffffffffffffffffffffff1673ffffffffffffffffffffffffffffffffffffffff1681526020019081526020015f205f8282546101a09190610458565b925050819055503373ffffffffffffffffffffffffffffffffffffffff167f884edad9ce6fa2440d8a54cc123490eb96d2768479d49ff9c7366125a9424364826040516101ed91906102f5565b60405180910390a250565b5f34101561023b576040517f08c379a0000000000000000000000000000000000000000000000000000000008152600401610232906104fb565b60405180910390fd5b345f803373ffffffffffffffffffffffffffffffffffffffff1673ffffffffffffffffffffffffffffffffffffffff1681526020019081526020015f205f8282546102869190610519565b925050819055503373ffffffffffffffffffffffffffffffffffffffff167fe1fffcc4923d04b559f4d29a8bfc6cda04eb5b0d3c460751c2402c5c5cc9109c346040516102d391906102f5565b60405180910390a2565b5f819050919050565b6102ef816102dd565b82525050565b5f6020820190506103085f8301846102e6565b92915050565b5f80fd5b61031b816102dd565b8114610325575f80fd5b50565b5f8135905061033681610312565b92915050565b5f602082840312156103515761035061030e565b5b5f61035e84828501610328565b91505092915050565b5f82825260208201905092915050565b7f796f752063616e206e6f742077697468647261772077697468207468617420615f8201527f6d6f756e7420686f772061626f757420796f75206465706f73697420736f6d6560208201527f206d6f72653f0000000000000000000000000000000000000000000000000000604082015250565b5f6103f7604683610367565b915061040282610377565b606082019050919050565b5f6020820190508181035f830152610424816103eb565b9050919050565b7f4e487b71000000000000000000000000000000000000000000000000000000005f52601160045260245ffd5b5f610462826102dd565b915061046d836102dd565b92508282039050818111156104855761048461042b565b5b92915050565b7f74686520616d6f756e74206f66206d6f6e65792063616e206e6f7420676f20625f8201527f656c6f77207a65726f0000000000000000000000000000000000000000000000602082015250565b5f6104e5602983610367565b91506104f08261048b565b604082019050919050565b5f6020820190508181035f830152610512816104d9565b9050919050565b5f610523826102dd565b915061052e836102dd565b92508282019050808211156105465761054561042b565b5b9291505056fea26469706673582212201e73045bb84aa087ce259fbf28fa9873b2dde98f919423555021950134a456a464736f6c634300081a0033",
					"opcodes": "PUSH1 0x80 PUSH1 0x40 MSTORE CALLVALUE DUP1 ISZERO PUSH1 0xE JUMPI PUSH0 DUP1 REVERT JUMPDEST POP PUSH2 0x582 DUP1 PUSH2 0x1C PUSH0 CODECOPY PUSH0 RETURN INVALID PUSH1 0x80 PUSH1 0x40 MSTORE PUSH1 0x4 CALLDATASIZE LT PUSH2 0x33 JUMPI PUSH0 CALLDATALOAD PUSH1 0xE0 SHR DUP1 PUSH4 0x12065FE0 EQ PUSH2 0x37 JUMPI DUP1 PUSH4 0x2E1A7D4D EQ PUSH2 0x61 JUMPI DUP1 PUSH4 0xD0E30DB0 EQ PUSH2 0x89 JUMPI JUMPDEST PUSH0 DUP1 REVERT JUMPDEST CALLVALUE DUP1 ISZERO PUSH2 0x42 JUMPI PUSH0 DUP1 REVERT JUMPDEST POP PUSH2 0x4B PUSH2 0x93 JUMP JUMPDEST PUSH1 0x40 MLOAD PUSH2 0x58 SWAP2 SWAP1 PUSH2 0x2F5 JUMP JUMPDEST PUSH1 0x40 MLOAD DUP1 SWAP2 SUB SWAP1 RETURN JUMPDEST CALLVALUE DUP1 ISZERO PUSH2 0x6C JUMPI PUSH0 DUP1 REVERT JUMPDEST POP PUSH2 0x87 PUSH1 0x4 DUP1 CALLDATASIZE SUB DUP2 ADD SWAP1 PUSH2 0x82 SWAP2 SWAP1 PUSH2 0x33C JUMP JUMPDEST PUSH2 0xD6 JUMP JUMPDEST STOP JUMPDEST PUSH2 0x91 PUSH2 0x1F8 JUMP JUMPDEST STOP JUMPDEST PUSH0 DUP1 PUSH0 CALLER PUSH20 0xFFFFFFFFFFFFFFFFFFFFFFFFFFFFFFFFFFFFFFFF AND PUSH20 0xFFFFFFFFFFFFFFFFFFFFFFFFFFFFFFFFFFFFFFFF AND DUP2 MSTORE PUSH1 0x20 ADD SWAP1 DUP2 MSTORE PUSH1 0x20 ADD PUSH0 KECCAK256 SLOAD SWAP1 POP SWAP1 JUMP JUMPDEST DUP1 PUSH0 DUP1 CALLER PUSH20 0xFFFFFFFFFFFFFFFFFFFFFFFFFFFFFFFFFFFFFFFF AND PUSH20 0xFFFFFFFFFFFFFFFFFFFFFFFFFFFFFFFFFFFFFFFF AND DUP2 MSTORE PUSH1 0x20 ADD SWAP1 DUP2 MSTORE PUSH1 0x20 ADD PUSH0 KECCAK256 SLOAD LT ISZERO PUSH2 0x155 JUMPI PUSH1 0x40 MLOAD PUSH32 0x8C379A000000000000000000000000000000000000000000000000000000000 DUP2 MSTORE PUSH1 0x4 ADD PUSH2 0x14C SWAP1 PUSH2 0x40D JUMP JUMPDEST PUSH1 0x40 MLOAD DUP1 SWAP2 SUB SWAP1 REVERT JUMPDEST DUP1 PUSH0 DUP1 CALLER PUSH20 0xFFFFFFFFFFFFFFFFFFFFFFFFFFFFFFFFFFFFFFFF AND PUSH20 0xFFFFFFFFFFFFFFFFFFFFFFFFFFFFFFFFFFFFFFFF AND DUP2 MSTORE PUSH1 0x20 ADD SWAP1 DUP2 MSTORE PUSH1 0x20 ADD PUSH0 KECCAK256 PUSH0 DUP3 DUP3 SLOAD PUSH2 0x1A0 SWAP2 SWAP1 PUSH2 0x458 JUMP JUMPDEST SWAP3 POP POP DUP2 SWAP1 SSTORE POP CALLER PUSH20 0xFFFFFFFFFFFFFFFFFFFFFFFFFFFFFFFFFFFFFFFF AND PUSH32 0x884EDAD9CE6FA2440D8A54CC123490EB96D2768479D49FF9C7366125A9424364 DUP3 PUSH1 0x40 MLOAD PUSH2 0x1ED SWAP2 SWAP1 PUSH2 0x2F5 JUMP JUMPDEST PUSH1 0x40 MLOAD DUP1 SWAP2 SUB SWAP1 LOG2 POP JUMP JUMPDEST PUSH0 CALLVALUE LT ISZERO PUSH2 0x23B JUMPI PUSH1 0x40 MLOAD PUSH32 0x8C379A000000000000000000000000000000000000000000000000000000000 DUP2 MSTORE PUSH1 0x4 ADD PUSH2 0x232 SWAP1 PUSH2 0x4FB JUMP JUMPDEST PUSH1 0x40 MLOAD DUP1 SWAP2 SUB SWAP1 REVERT JUMPDEST CALLVALUE PUSH0 DUP1 CALLER PUSH20 0xFFFFFFFFFFFFFFFFFFFFFFFFFFFFFFFFFFFFFFFF AND PUSH20 0xFFFFFFFFFFFFFFFFFFFFFFFFFFFFFFFFFFFFFFFF AND DUP2 MSTORE PUSH1 0x20 ADD SWAP1 DUP2 MSTORE PUSH1 0x20 ADD PUSH0 KECCAK256 PUSH0 DUP3 DUP3 SLOAD PUSH2 0x286 SWAP2 SWAP1 PUSH2 0x519 JUMP JUMPDEST SWAP3 POP POP DUP2 SWAP1 SSTORE POP CALLER PUSH20 0xFFFFFFFFFFFFFFFFFFFFFFFFFFFFFFFFFFFFFFFF AND PUSH32 0xE1FFFCC4923D04B559F4D29A8BFC6CDA04EB5B0D3C460751C2402C5C5CC9109C CALLVALUE PUSH1 0x40 MLOAD PUSH2 0x2D3 SWAP2 SWAP1 PUSH2 0x2F5 JUMP JUMPDEST PUSH1 0x40 MLOAD DUP1 SWAP2 SUB SWAP1 LOG2 JUMP JUMPDEST PUSH0 DUP2 SWAP1 POP SWAP2 SWAP1 POP JUMP JUMPDEST PUSH2 0x2EF DUP2 PUSH2 0x2DD JUMP JUMPDEST DUP3 MSTORE POP POP JUMP JUMPDEST PUSH0 PUSH1 0x20 DUP3 ADD SWAP1 POP PUSH2 0x308 PUSH0 DUP4 ADD DUP5 PUSH2 0x2E6 JUMP JUMPDEST SWAP3 SWAP2 POP POP JUMP JUMPDEST PUSH0 DUP1 REVERT JUMPDEST PUSH2 0x31B DUP2 PUSH2 0x2DD JUMP JUMPDEST DUP2 EQ PUSH2 0x325 JUMPI PUSH0 DUP1 REVERT JUMPDEST POP JUMP JUMPDEST PUSH0 DUP2 CALLDATALOAD SWAP1 POP PUSH2 0x336 DUP2 PUSH2 0x312 JUMP JUMPDEST SWAP3 SWAP2 POP POP JUMP JUMPDEST PUSH0 PUSH1 0x20 DUP3 DUP5 SUB SLT ISZERO PUSH2 0x351 JUMPI PUSH2 0x350 PUSH2 0x30E JUMP JUMPDEST JUMPDEST PUSH0 PUSH2 0x35E DUP5 DUP3 DUP6 ADD PUSH2 0x328 JUMP JUMPDEST SWAP2 POP POP SWAP3 SWAP2 POP POP JUMP JUMPDEST PUSH0 DUP3 DUP3 MSTORE PUSH1 0x20 DUP3 ADD SWAP1 POP SWAP3 SWAP2 POP POP JUMP JUMPDEST PUSH32 0x796F752063616E206E6F74207769746864726177207769746820746861742061 PUSH0 DUP3 ADD MSTORE PUSH32 0x6D6F756E7420686F772061626F757420796F75206465706F73697420736F6D65 PUSH1 0x20 DUP3 ADD MSTORE PUSH32 0x206D6F72653F0000000000000000000000000000000000000000000000000000 PUSH1 0x40 DUP3 ADD MSTORE POP JUMP JUMPDEST PUSH0 PUSH2 0x3F7 PUSH1 0x46 DUP4 PUSH2 0x367 JUMP JUMPDEST SWAP2 POP PUSH2 0x402 DUP3 PUSH2 0x377 JUMP JUMPDEST PUSH1 0x60 DUP3 ADD SWAP1 POP SWAP2 SWAP1 POP JUMP JUMPDEST PUSH0 PUSH1 0x20 DUP3 ADD SWAP1 POP DUP2 DUP2 SUB PUSH0 DUP4 ADD MSTORE PUSH2 0x424 DUP2 PUSH2 0x3EB JUMP JUMPDEST SWAP1 POP SWAP2 SWAP1 POP JUMP JUMPDEST PUSH32 0x4E487B7100000000000000000000000000000000000000000000000000000000 PUSH0 MSTORE PUSH1 0x11 PUSH1 0x4 MSTORE PUSH1 0x24 PUSH0 REVERT JUMPDEST PUSH0 PUSH2 0x462 DUP3 PUSH2 0x2DD JUMP JUMPDEST SWAP2 POP PUSH2 0x46D DUP4 PUSH2 0x2DD JUMP JUMPDEST SWAP3 POP DUP3 DUP3 SUB SWAP1 POP DUP2 DUP2 GT ISZERO PUSH2 0x485 JUMPI PUSH2 0x484 PUSH2 0x42B JUMP JUMPDEST JUMPDEST SWAP3 SWAP2 POP POP JUMP JUMPDEST PUSH32 0x74686520616D6F756E74206F66206D6F6E65792063616E206E6F7420676F2062 PUSH0 DUP3 ADD MSTORE PUSH32 0x656C6F77207A65726F0000000000000000000000000000000000000000000000 PUSH1 0x20 DUP3 ADD MSTORE POP JUMP JUMPDEST PUSH0 PUSH2 0x4E5 PUSH1 0x29 DUP4 PUSH2 0x367 JUMP JUMPDEST SWAP2 POP PUSH2 0x4F0 DUP3 PUSH2 0x48B JUMP JUMPDEST PUSH1 0x40 DUP3 ADD SWAP1 POP SWAP2 SWAP1 POP JUMP JUMPDEST PUSH0 PUSH1 0x20 DUP3 ADD SWAP1 POP DUP2 DUP2 SUB PUSH0 DUP4 ADD MSTORE PUSH2 0x512 DUP2 PUSH2 0x4D9 JUMP JUMPDEST SWAP1 POP SWAP2 SWAP1 POP JUMP JUMPDEST PUSH0 PUSH2 0x523 DUP3 PUSH2 0x2DD JUMP JUMPDEST SWAP2 POP PUSH2 0x52E DUP4 PUSH2 0x2DD JUMP JUMPDEST SWAP3 POP DUP3 DUP3 ADD SWAP1 POP DUP1 DUP3 GT ISZERO PUSH2 0x546 JUMPI PUSH2 0x545 PUSH2 0x42B JUMP JUMPDEST JUMPDEST SWAP3 SWAP2 POP POP JUMP INVALID LOG2 PUSH5 0x6970667358 0x22 SLT KECCAK256 0x1E PUSH20 0x45BB84AA087CE259FBF28FA9873B2DDE98F9194 0x23 SSTORE POP 0x21 SWAP6 ADD CALLVALUE LOG4 JUMP LOG4 PUSH5 0x736F6C6343 STOP ADDMOD BYTE STOP CALLER "
				},
				"gasEstimates": {
					"creation": {
						"codeDepositCost": "282000",
						"executionCost": "322",
						"totalCost": "282322"
					},
					"external": {
						"deposit()": "infinite",
						"getBalance()": "2497",
						"withdraw(uint256)": "infinite"
					}
				},
				"methodIdentifiers": {
					"deposit()": "d0e30db0",
					"getBalance()": "12065fe0",
					"withdraw(uint256)": "2e1a7d4d"
				}
			},
			"storageLayout": {
				"storage": [
					{
						"astId": 5,
						"contract": "Smart contracts/assessment.sol:SimpleBank",
						"label": "balance",
						"offset": 0,
						"slot": "0",
						"type": "t_mapping(t_address,t_uint256)"
					}
				],
				"types": {
					"t_address": {
						"encoding": "inplace",
						"label": "address",
						"numberOfBytes": "20"
					},
					"t_mapping(t_address,t_uint256)": {
						"encoding": "mapping",
						"key": "t_address",
						"label": "mapping(address => uint256)",
						"numberOfBytes": "32",
						"value": "t_uint256"
					},
					"t_uint256": {
						"encoding": "inplace",
						"label": "uint256",
						"numberOfBytes": "32"
					}
				}
			},
			"userdoc": {
				"kind": "user",
				"methods": {},
				"version": 1
			}
		}
	}
}