{
	"Grading_quiz.sol": {
		"GradingSystem": {
			"abi": [
				{
					"inputs": [
						{
							"internalType": "uint256",
							"name": "score",
							"type": "uint256"
						}
					],
					"name": "getGrade",
					"outputs": [
						{
							"internalType": "string",
							"name": "",
							"type": "string"
						}
					],
					"stateMutability": "pure",
					"type": "function"
				}
			],
			"devdoc": {
				"kind": "dev",
				"methods": {},
				"version": 1
			},
			"evm": {
				"assembly": "    /* \"Grading_quiz.sol\":60:554  contract GradingSystem{... */\n  mstore(0x40, 0x80)\n  callvalue\n  dup1\n  iszero\n  tag_1\n  jumpi\n  0x00\n  dup1\n  revert\ntag_1:\n  pop\n  dataSize(sub_0)\n  dup1\n  dataOffset(sub_0)\n  0x00\n  codecopy\n  0x00\n  return\nstop\n\nsub_0: assembly {\n        /* \"Grading_quiz.sol\":60:554  contract GradingSystem{... */\n      mstore(0x40, 0x80)\n      callvalue\n      dup1\n      iszero\n      tag_1\n      jumpi\n      0x00\n      dup1\n      revert\n    tag_1:\n      pop\n      jumpi(tag_2, lt(calldatasize, 0x04))\n      shr(0xe0, calldataload(0x00))\n      dup1\n      0xe1e0485e\n      eq\n      tag_3\n      jumpi\n    tag_2:\n      0x00\n      dup1\n      revert\n        /* \"Grading_quiz.sol\":89:543  function getGrade(uint score)public pure returns(string memory ){... */\n    tag_3:\n      tag_4\n      0x04\n      dup1\n      calldatasize\n      sub\n      dup2\n      add\n      swap1\n      tag_5\n      swap2\n      swap1\n      tag_6\n      jump\t// in\n    tag_5:\n      tag_7\n      jump\t// in\n    tag_4:\n      mload(0x40)\n      tag_8\n      swap2\n      swap1\n      tag_9\n      jump\t// in\n    tag_8:\n      mload(0x40)\n      dup1\n      swap2\n      sub\n      swap1\n      return\n    tag_7:\n        /* \"Grading_quiz.sol\":138:151  string memory */\n      0x60\n        /* \"Grading_quiz.sol\":179:182  100 */\n      0x64\n        /* \"Grading_quiz.sol\":172:177  score */\n      dup3\n        /* \"Grading_quiz.sol\":172:182  score<=100 */\n      gt\n      iszero\n        /* \"Grading_quiz.sol\":164:229  require(score<=100, \"make sure your scores is between 0 and 100\") */\n      tag_11\n      jumpi\n      mload(0x40)\n      0x08c379a000000000000000000000000000000000000000000000000000000000\n      dup2\n      mstore\n      0x04\n      add\n      tag_12\n      swap1\n      tag_13\n      jump\t// in\n    tag_12:\n      mload(0x40)\n      dup1\n      swap2\n      sub\n      swap1\n      revert\n    tag_11:\n        /* \"Grading_quiz.sol\":250:252  90 */\n      0x5a\n        /* \"Grading_quiz.sol\":243:248  score */\n      dup3\n        /* \"Grading_quiz.sol\":243:252  score>=90 */\n      lt\n        /* \"Grading_quiz.sol\":240:536  if(score>=90){... */\n      tag_14\n      jumpi\n        /* \"Grading_quiz.sol\":268:277  return\"A\" */\n      mload(0x40)\n      dup1\n      0x40\n      add\n      0x40\n      mstore\n      dup1\n      0x01\n      dup2\n      mstore\n      0x20\n      add\n      0x4100000000000000000000000000000000000000000000000000000000000000\n      dup2\n      mstore\n      pop\n      swap1\n      pop\n      jump(tag_10)\n        /* \"Grading_quiz.sol\":240:536  if(score>=90){... */\n    tag_14:\n        /* \"Grading_quiz.sol\":314:316  80 */\n      0x50\n        /* \"Grading_quiz.sol\":307:312  score */\n      dup3\n        /* \"Grading_quiz.sol\":307:316  score>=80 */\n      lt\n        /* \"Grading_quiz.sol\":304:536  if(score>=80){... */\n      tag_16\n      jumpi\n        /* \"Grading_quiz.sol\":332:341  return\"B\" */\n      mload(0x40)\n      dup1\n      0x40\n      add\n      0x40\n      mstore\n      dup1\n      0x01\n      dup2\n      mstore\n      0x20\n      add\n      0x4200000000000000000000000000000000000000000000000000000000000000\n      dup2\n      mstore\n      pop\n      swap1\n      pop\n      jump(tag_10)\n        /* \"Grading_quiz.sol\":304:536  if(score>=80){... */\n    tag_16:\n        /* \"Grading_quiz.sol\":380:382  70 */\n      0x46\n        /* \"Grading_quiz.sol\":371:376  score */\n      dup3\n        /* \"Grading_quiz.sol\":371:382  score >= 70 */\n      lt\n        /* \"Grading_quiz.sol\":368:536  if(score >= 70){... */\n      tag_18\n      jumpi\n        /* \"Grading_quiz.sol\":398:408  return \"C\" */\n      mload(0x40)\n      dup1\n      0x40\n      add\n      0x40\n      mstore\n      dup1\n      0x01\n      dup2\n      mstore\n      0x20\n      add\n      0x4300000000000000000000000000000000000000000000000000000000000000\n      dup2\n      mstore\n      pop\n      swap1\n      pop\n      jump(tag_10)\n        /* \"Grading_quiz.sol\":368:536  if(score >= 70){... */\n    tag_18:\n        /* \"Grading_quiz.sol\":445:447  60 */\n      0x3c\n        /* \"Grading_quiz.sol\":438:443  score */\n      dup3\n        /* \"Grading_quiz.sol\":438:447  score>=60 */\n      lt\n        /* \"Grading_quiz.sol\":435:536  if(score>=60){... */\n      tag_20\n      jumpi\n        /* \"Grading_quiz.sol\":463:473  return \"D\" */\n      mload(0x40)\n      dup1\n      0x40\n      add\n      0x40\n      mstore\n      dup1\n      0x01\n      dup2\n      mstore\n      0x20\n      add\n      0x4400000000000000000000000000000000000000000000000000000000000000\n      dup2\n      mstore\n      pop\n      swap1\n      pop\n      jump(tag_10)\n        /* \"Grading_quiz.sol\":435:536  if(score>=60){... */\n    tag_20:\n        /* \"Grading_quiz.sol\":514:524  return \"F\" */\n      mload(0x40)\n      dup1\n      0x40\n      add\n      0x40\n      mstore\n      dup1\n      0x01\n      dup2\n      mstore\n      0x20\n      add\n      0x4600000000000000000000000000000000000000000000000000000000000000\n      dup2\n      mstore\n      pop\n      swap1\n      pop\n        /* \"Grading_quiz.sol\":89:543  function getGrade(uint score)public pure returns(string memory ){... */\n    tag_10:\n      swap2\n      swap1\n      pop\n      jump\t// out\n        /* \"#utility.yul\":88:205   */\n    tag_23:\n        /* \"#utility.yul\":197:198   */\n      0x00\n        /* \"#utility.yul\":194:195   */\n      dup1\n        /* \"#utility.yul\":187:199   */\n      revert\n        /* \"#utility.yul\":334:411   */\n    tag_25:\n        /* \"#utility.yul\":371:378   */\n      0x00\n        /* \"#utility.yul\":400:405   */\n      dup2\n        /* \"#utility.yul\":389:405   */\n      swap1\n      pop\n        /* \"#utility.yul\":334:411   */\n      swap2\n      swap1\n      pop\n      jump\t// out\n        /* \"#utility.yul\":417:539   */\n    tag_26:\n        /* \"#utility.yul\":490:514   */\n      tag_41\n        /* \"#utility.yul\":508:513   */\n      dup2\n        /* \"#utility.yul\":490:514   */\n      tag_25\n      jump\t// in\n    tag_41:\n        /* \"#utility.yul\":483:488   */\n      dup2\n        /* \"#utility.yul\":480:515   */\n      eq\n        /* \"#utility.yul\":470:533   */\n      tag_42\n      jumpi\n        /* \"#utility.yul\":529:530   */\n      0x00\n        /* \"#utility.yul\":526:527   */\n      dup1\n        /* \"#utility.yul\":519:531   */\n      revert\n        /* \"#utility.yul\":470:533   */\n    tag_42:\n        /* \"#utility.yul\":417:539   */\n      pop\n      jump\t// out\n        /* \"#utility.yul\":545:684   */\n    tag_27:\n        /* \"#utility.yul\":591:596   */\n      0x00\n        /* \"#utility.yul\":629:635   */\n      dup2\n        /* \"#utility.yul\":616:636   */\n      calldataload\n        /* \"#utility.yul\":607:636   */\n      swap1\n      pop\n        /* \"#utility.yul\":645:678   */\n      tag_44\n        /* \"#utility.yul\":672:677   */\n      dup2\n        /* \"#utility.yul\":645:678   */\n      tag_26\n      jump\t// in\n    tag_44:\n        /* \"#utility.yul\":545:684   */\n      swap3\n      swap2\n      pop\n      pop\n      jump\t// out\n        /* \"#utility.yul\":690:1019   */\n    tag_6:\n        /* \"#utility.yul\":749:755   */\n      0x00\n        /* \"#utility.yul\":798:800   */\n      0x20\n        /* \"#utility.yul\":786:795   */\n      dup3\n        /* \"#utility.yul\":777:784   */\n      dup5\n        /* \"#utility.yul\":773:796   */\n      sub\n        /* \"#utility.yul\":769:801   */\n      slt\n        /* \"#utility.yul\":766:885   */\n      iszero\n      tag_46\n      jumpi\n        /* \"#utility.yul\":804:883   */\n      tag_47\n      tag_23\n      jump\t// in\n    tag_47:\n        /* \"#utility.yul\":766:885   */\n    tag_46:\n        /* \"#utility.yul\":924:925   */\n      0x00\n        /* \"#utility.yul\":949:1002   */\n      tag_48\n        /* \"#utility.yul\":994:1001   */\n      dup5\n        /* \"#utility.yul\":985:991   */\n      dup3\n        /* \"#utility.yul\":974:983   */\n      dup6\n        /* \"#utility.yul\":970:992   */\n      add\n        /* \"#utility.yul\":949:1002   */\n      tag_27\n      jump\t// in\n    tag_48:\n        /* \"#utility.yul\":939:1002   */\n      swap2\n      pop\n        /* \"#utility.yul\":895:1012   */\n      pop\n        /* \"#utility.yul\":690:1019   */\n      swap3\n      swap2\n      pop\n      pop\n      jump\t// out\n        /* \"#utility.yul\":1025:1124   */\n    tag_28:\n        /* \"#utility.yul\":1077:1083   */\n      0x00\n        /* \"#utility.yul\":1111:1116   */\n      dup2\n        /* \"#utility.yul\":1105:1117   */\n      mload\n        /* \"#utility.yul\":1095:1117   */\n      swap1\n      pop\n        /* \"#utility.yul\":1025:1124   */\n      swap2\n      swap1\n      pop\n      jump\t// out\n        /* \"#utility.yul\":1130:1299   */\n    tag_29:\n        /* \"#utility.yul\":1214:1225   */\n      0x00\n        /* \"#utility.yul\":1248:1254   */\n      dup3\n        /* \"#utility.yul\":1243:1246   */\n      dup3\n        /* \"#utility.yul\":1236:1255   */\n      mstore\n        /* \"#utility.yul\":1288:1292   */\n      0x20\n        /* \"#utility.yul\":1283:1286   */\n      dup3\n        /* \"#utility.yul\":1279:1293   */\n      add\n        /* \"#utility.yul\":1264:1293   */\n      swap1\n      pop\n        /* \"#utility.yul\":1130:1299   */\n      swap3\n      swap2\n      pop\n      pop\n      jump\t// out\n        /* \"#utility.yul\":1305:1444   */\n    tag_30:\n        /* \"#utility.yul\":1394:1400   */\n      dup3\n        /* \"#utility.yul\":1389:1392   */\n      dup2\n        /* \"#utility.yul\":1384:1387   */\n      dup4\n        /* \"#utility.yul\":1378:1401   */\n      mcopy\n        /* \"#utility.yul\":1435:1436   */\n      0x00\n        /* \"#utility.yul\":1426:1432   */\n      dup4\n        /* \"#utility.yul\":1421:1424   */\n      dup4\n        /* \"#utility.yul\":1417:1433   */\n      add\n        /* \"#utility.yul\":1410:1437   */\n      mstore\n        /* \"#utility.yul\":1305:1444   */\n      pop\n      pop\n      pop\n      jump\t// out\n        /* \"#utility.yul\":1450:1552   */\n    tag_31:\n        /* \"#utility.yul\":1491:1497   */\n      0x00\n        /* \"#utility.yul\":1542:1544   */\n      0x1f\n        /* \"#utility.yul\":1538:1545   */\n      not\n        /* \"#utility.yul\":1533:1535   */\n      0x1f\n        /* \"#utility.yul\":1526:1531   */\n      dup4\n        /* \"#utility.yul\":1522:1536   */\n      add\n        /* \"#utility.yul\":1518:1546   */\n      and\n        /* \"#utility.yul\":1508:1546   */\n      swap1\n      pop\n        /* \"#utility.yul\":1450:1552   */\n      swap2\n      swap1\n      pop\n      jump\t// out\n        /* \"#utility.yul\":1558:1935   */\n    tag_32:\n        /* \"#utility.yul\":1646:1649   */\n      0x00\n        /* \"#utility.yul\":1674:1713   */\n      tag_54\n        /* \"#utility.yul\":1707:1712   */\n      dup3\n        /* \"#utility.yul\":1674:1713   */\n      tag_28\n      jump\t// in\n    tag_54:\n        /* \"#utility.yul\":1729:1800   */\n      tag_55\n        /* \"#utility.yul\":1793:1799   */\n      dup2\n        /* \"#utility.yul\":1788:1791   */\n      dup6\n        /* \"#utility.yul\":1729:1800   */\n      tag_29\n      jump\t// in\n    tag_55:\n        /* \"#utility.yul\":1722:1800   */\n      swap4\n      pop\n        /* \"#utility.yul\":1809:1874   */\n      tag_56\n        /* \"#utility.yul\":1867:1873   */\n      dup2\n        /* \"#utility.yul\":1862:1865   */\n      dup6\n        /* \"#utility.yul\":1855:1859   */\n      0x20\n        /* \"#utility.yul\":1848:1853   */\n      dup7\n        /* \"#utility.yul\":1844:1860   */\n      add\n        /* \"#utility.yul\":1809:1874   */\n      tag_30\n      jump\t// in\n    tag_56:\n        /* \"#utility.yul\":1899:1928   */\n      tag_57\n        /* \"#utility.yul\":1921:1927   */\n      dup2\n        /* \"#utility.yul\":1899:1928   */\n      tag_31\n      jump\t// in\n    tag_57:\n        /* \"#utility.yul\":1894:1897   */\n      dup5\n        /* \"#utility.yul\":1890:1929   */\n      add\n        /* \"#utility.yul\":1883:1929   */\n      swap2\n      pop\n        /* \"#utility.yul\":1650:1935   */\n      pop\n        /* \"#utility.yul\":1558:1935   */\n      swap3\n      swap2\n      pop\n      pop\n      jump\t// out\n        /* \"#utility.yul\":1941:2254   */\n    tag_9:\n        /* \"#utility.yul\":2054:2058   */\n      0x00\n        /* \"#utility.yul\":2092:2094   */\n      0x20\n        /* \"#utility.yul\":2081:2090   */\n      dup3\n        /* \"#utility.yul\":2077:2095   */\n      add\n        /* \"#utility.yul\":2069:2095   */\n      swap1\n      pop\n        /* \"#utility.yul\":2141:2150   */\n      dup2\n        /* \"#utility.yul\":2135:2139   */\n      dup2\n        /* \"#utility.yul\":2131:2151   */\n      sub\n        /* \"#utility.yul\":2127:2128   */\n      0x00\n        /* \"#utility.yul\":2116:2125   */\n      dup4\n        /* \"#utility.yul\":2112:2129   */\n      add\n        /* \"#utility.yul\":2105:2152   */\n      mstore\n        /* \"#utility.yul\":2169:2247   */\n      tag_59\n        /* \"#utility.yul\":2242:2246   */\n      dup2\n        /* \"#utility.yul\":2233:2239   */\n      dup5\n        /* \"#utility.yul\":2169:2247   */\n      tag_32\n      jump\t// in\n    tag_59:\n        /* \"#utility.yul\":2161:2247   */\n      swap1\n      pop\n        /* \"#utility.yul\":1941:2254   */\n      swap3\n      swap2\n      pop\n      pop\n      jump\t// out\n        /* \"#utility.yul\":2260:2489   */\n    tag_33:\n        /* \"#utility.yul\":2400:2434   */\n      0x6d616b65207375726520796f75722073636f726573206973206265747765656e\n        /* \"#utility.yul\":2396:2397   */\n      0x00\n        /* \"#utility.yul\":2388:2394   */\n      dup3\n        /* \"#utility.yul\":2384:2398   */\n      add\n        /* \"#utility.yul\":2377:2435   */\n      mstore\n        /* \"#utility.yul\":2469:2481   */\n      0x203020616e642031303000000000000000000000000000000000000000000000\n        /* \"#utility.yul\":2464:2466   */\n      0x20\n        /* \"#utility.yul\":2456:2462   */\n      dup3\n        /* \"#utility.yul\":2452:2467   */\n      add\n        /* \"#utility.yul\":2445:2482   */\n      mstore\n        /* \"#utility.yul\":2260:2489   */\n      pop\n      jump\t// out\n        /* \"#utility.yul\":2495:2861   */\n    tag_34:\n        /* \"#utility.yul\":2637:2640   */\n      0x00\n        /* \"#utility.yul\":2658:2725   */\n      tag_62\n        /* \"#utility.yul\":2722:2724   */\n      0x2a\n        /* \"#utility.yul\":2717:2720   */\n      dup4\n        /* \"#utility.yul\":2658:2725   */\n      tag_29\n      jump\t// in\n    tag_62:\n        /* \"#utility.yul\":2651:2725   */\n      swap2\n      pop\n        /* \"#utility.yul\":2734:2827   */\n      tag_63\n        /* \"#utility.yul\":2823:2826   */\n      dup3\n        /* \"#utility.yul\":2734:2827   */\n      tag_33\n      jump\t// in\n    tag_63:\n        /* \"#utility.yul\":2852:2854   */\n      0x40\n        /* \"#utility.yul\":2847:2850   */\n      dup3\n        /* \"#utility.yul\":2843:2855   */\n      add\n        /* \"#utility.yul\":2836:2855   */\n      swap1\n      pop\n        /* \"#utility.yul\":2495:2861   */\n      swap2\n      swap1\n      pop\n      jump\t// out\n        /* \"#utility.yul\":2867:3286   */\n    tag_13:\n        /* \"#utility.yul\":3033:3037   */\n      0x00\n        /* \"#utility.yul\":3071:3073   */\n      0x20\n        /* \"#utility.yul\":3060:3069   */\n      dup3\n        /* \"#utility.yul\":3056:3074   */\n      add\n        /* \"#utility.yul\":3048:3074   */\n      swap1\n      pop\n        /* \"#utility.yul\":3120:3129   */\n      dup2\n        /* \"#utility.yul\":3114:3118   */\n      dup2\n        /* \"#utility.yul\":3110:3130   */\n      sub\n        /* \"#utility.yul\":3106:3107   */\n      0x00\n        /* \"#utility.yul\":3095:3104   */\n      dup4\n        /* \"#utility.yul\":3091:3108   */\n      add\n        /* \"#utility.yul\":3084:3131   */\n      mstore\n        /* \"#utility.yul\":3148:3279   */\n      tag_65\n        /* \"#utility.yul\":3274:3278   */\n      dup2\n        /* \"#utility.yul\":3148:3279   */\n      tag_34\n      jump\t// in\n    tag_65:\n        /* \"#utility.yul\":3140:3279   */\n      swap1\n      pop\n        /* \"#utility.yul\":2867:3286   */\n      swap2\n      swap1\n      pop\n      jump\t// out\n\n    auxdata: 0xa264697066735822122005e6e36470468775da1281252b1f9ac26317ef3d28cb1031fd7bb1b4cf675af564736f6c634300081a0033\n}\n",
				"bytecode": {
					"linkReferences": {},
					"object": "6080604052348015600e575f80fd5b506103ab8061001c5f395ff3fe608060405234801561000f575f80fd5b5060043610610029575f3560e01c8063e1e0485e1461002d575b5f80fd5b6100476004803603810190610042919061022c565b61005d565b60405161005491906102c7565b60405180910390f35b606060648211156100a3576040517f08c379a000000000000000000000000000000000000000000000000000000000815260040161009a90610357565b60405180910390fd5b605a82106100e8576040518060400160405280600181526020017f410000000000000000000000000000000000000000000000000000000000000081525090506101f0565b6050821061012d576040518060400160405280600181526020017f420000000000000000000000000000000000000000000000000000000000000081525090506101f0565b60468210610172576040518060400160405280600181526020017f430000000000000000000000000000000000000000000000000000000000000081525090506101f0565b603c82106101b7576040518060400160405280600181526020017f440000000000000000000000000000000000000000000000000000000000000081525090506101f0565b6040518060400160405280600181526020017f460000000000000000000000000000000000000000000000000000000000000081525090505b919050565b5f80fd5b5f819050919050565b61020b816101f9565b8114610215575f80fd5b50565b5f8135905061022681610202565b92915050565b5f60208284031215610241576102406101f5565b5b5f61024e84828501610218565b91505092915050565b5f81519050919050565b5f82825260208201905092915050565b8281835e5f83830152505050565b5f601f19601f8301169050919050565b5f61029982610257565b6102a38185610261565b93506102b3818560208601610271565b6102bc8161027f565b840191505092915050565b5f6020820190508181035f8301526102df818461028f565b905092915050565b7f6d616b65207375726520796f75722073636f726573206973206265747765656e5f8201527f203020616e642031303000000000000000000000000000000000000000000000602082015250565b5f610341602a83610261565b915061034c826102e7565b604082019050919050565b5f6020820190508181035f83015261036e81610335565b905091905056fea264697066735822122005e6e36470468775da1281252b1f9ac26317ef3d28cb1031fd7bb1b4cf675af564736f6c634300081a0033",
					"opcodes": "PUSH1 0x80 PUSH1 0x40 MSTORE CALLVALUE DUP1 ISZERO PUSH1 0xE JUMPI PUSH0 DUP1 REVERT JUMPDEST POP PUSH2 0x3AB DUP1 PUSH2 0x1C PUSH0 CODECOPY PUSH0 RETURN INVALID PUSH1 0x80 PUSH1 0x40 MSTORE CALLVALUE DUP1 ISZERO PUSH2 0xF JUMPI PUSH0 DUP1 REVERT JUMPDEST POP PUSH1 0x4 CALLDATASIZE LT PUSH2 0x29 JUMPI PUSH0 CALLDATALOAD PUSH1 0xE0 SHR DUP1 PUSH4 0xE1E0485E EQ PUSH2 0x2D JUMPI JUMPDEST PUSH0 DUP1 REVERT JUMPDEST PUSH2 0x47 PUSH1 0x4 DUP1 CALLDATASIZE SUB DUP2 ADD SWAP1 PUSH2 0x42 SWAP2 SWAP1 PUSH2 0x22C JUMP JUMPDEST PUSH2 0x5D JUMP JUMPDEST PUSH1 0x40 MLOAD PUSH2 0x54 SWAP2 SWAP1 PUSH2 0x2C7 JUMP JUMPDEST PUSH1 0x40 MLOAD DUP1 SWAP2 SUB SWAP1 RETURN JUMPDEST PUSH1 0x60 PUSH1 0x64 DUP3 GT ISZERO PUSH2 0xA3 JUMPI PUSH1 0x40 MLOAD PUSH32 0x8C379A000000000000000000000000000000000000000000000000000000000 DUP2 MSTORE PUSH1 0x4 ADD PUSH2 0x9A SWAP1 PUSH2 0x357 JUMP JUMPDEST PUSH1 0x40 MLOAD DUP1 SWAP2 SUB SWAP1 REVERT JUMPDEST PUSH1 0x5A DUP3 LT PUSH2 0xE8 JUMPI PUSH1 0x40 MLOAD DUP1 PUSH1 0x40 ADD PUSH1 0x40 MSTORE DUP1 PUSH1 0x1 DUP2 MSTORE PUSH1 0x20 ADD PUSH32 0x4100000000000000000000000000000000000000000000000000000000000000 DUP2 MSTORE POP SWAP1 POP PUSH2 0x1F0 JUMP JUMPDEST PUSH1 0x50 DUP3 LT PUSH2 0x12D JUMPI PUSH1 0x40 MLOAD DUP1 PUSH1 0x40 ADD PUSH1 0x40 MSTORE DUP1 PUSH1 0x1 DUP2 MSTORE PUSH1 0x20 ADD PUSH32 0x4200000000000000000000000000000000000000000000000000000000000000 DUP2 MSTORE POP SWAP1 POP PUSH2 0x1F0 JUMP JUMPDEST PUSH1 0x46 DUP3 LT PUSH2 0x172 JUMPI PUSH1 0x40 MLOAD DUP1 PUSH1 0x40 ADD PUSH1 0x40 MSTORE DUP1 PUSH1 0x1 DUP2 MSTORE PUSH1 0x20 ADD PUSH32 0x4300000000000000000000000000000000000000000000000000000000000000 DUP2 MSTORE POP SWAP1 POP PUSH2 0x1F0 JUMP JUMPDEST PUSH1 0x3C DUP3 LT PUSH2 0x1B7 JUMPI PUSH1 0x40 MLOAD DUP1 PUSH1 0x40 ADD PUSH1 0x40 MSTORE DUP1 PUSH1 0x1 DUP2 MSTORE PUSH1 0x20 ADD PUSH32 0x4400000000000000000000000000000000000000000000000000000000000000 DUP2 MSTORE POP SWAP1 POP PUSH2 0x1F0 JUMP JUMPDEST PUSH1 0x40 MLOAD DUP1 PUSH1 0x40 ADD PUSH1 0x40 MSTORE DUP1 PUSH1 0x1 DUP2 MSTORE PUSH1 0x20 ADD PUSH32 0x4600000000000000000000000000000000000000000000000000000000000000 DUP2 MSTORE POP SWAP1 POP JUMPDEST SWAP2 SWAP1 POP JUMP JUMPDEST PUSH0 DUP1 REVERT JUMPDEST PUSH0 DUP2 SWAP1 POP SWAP2 SWAP1 POP JUMP JUMPDEST PUSH2 0x20B DUP2 PUSH2 0x1F9 JUMP JUMPDEST DUP2 EQ PUSH2 0x215 JUMPI PUSH0 DUP1 REVERT JUMPDEST POP JUMP JUMPDEST PUSH0 DUP2 CALLDATALOAD SWAP1 POP PUSH2 0x226 DUP2 PUSH2 0x202 JUMP JUMPDEST SWAP3 SWAP2 POP POP JUMP JUMPDEST PUSH0 PUSH1 0x20 DUP3 DUP5 SUB SLT ISZERO PUSH2 0x241 JUMPI PUSH2 0x240 PUSH2 0x1F5 JUMP JUMPDEST JUMPDEST PUSH0 PUSH2 0x24E DUP5 DUP3 DUP6 ADD PUSH2 0x218 JUMP JUMPDEST SWAP2 POP POP SWAP3 SWAP2 POP POP JUMP JUMPDEST PUSH0 DUP2 MLOAD SWAP1 POP SWAP2 SWAP1 POP JUMP JUMPDEST PUSH0 DUP3 DUP3 MSTORE PUSH1 0x20 DUP3 ADD SWAP1 POP SWAP3 SWAP2 POP POP JUMP JUMPDEST DUP3 DUP2 DUP4 MCOPY PUSH0 DUP4 DUP4 ADD MSTORE POP POP POP JUMP JUMPDEST PUSH0 PUSH1 0x1F NOT PUSH1 0x1F DUP4 ADD AND SWAP1 POP SWAP2 SWAP1 POP JUMP JUMPDEST PUSH0 PUSH2 0x299 DUP3 PUSH2 0x257 JUMP JUMPDEST PUSH2 0x2A3 DUP2 DUP6 PUSH2 0x261 JUMP JUMPDEST SWAP4 POP PUSH2 0x2B3 DUP2 DUP6 PUSH1 0x20 DUP7 ADD PUSH2 0x271 JUMP JUMPDEST PUSH2 0x2BC DUP2 PUSH2 0x27F JUMP JUMPDEST DUP5 ADD SWAP2 POP POP SWAP3 SWAP2 POP POP JUMP JUMPDEST PUSH0 PUSH1 0x20 DUP3 ADD SWAP1 POP DUP2 DUP2 SUB PUSH0 DUP4 ADD MSTORE PUSH2 0x2DF DUP2 DUP5 PUSH2 0x28F JUMP JUMPDEST SWAP1 POP SWAP3 SWAP2 POP POP JUMP JUMPDEST PUSH32 0x6D616B65207375726520796F75722073636F726573206973206265747765656E PUSH0 DUP3 ADD MSTORE PUSH32 0x203020616E642031303000000000000000000000000000000000000000000000 PUSH1 0x20 DUP3 ADD MSTORE POP JUMP JUMPDEST PUSH0 PUSH2 0x341 PUSH1 0x2A DUP4 PUSH2 0x261 JUMP JUMPDEST SWAP2 POP PUSH2 0x34C DUP3 PUSH2 0x2E7 JUMP JUMPDEST PUSH1 0x40 DUP3 ADD SWAP1 POP SWAP2 SWAP1 POP JUMP JUMPDEST PUSH0 PUSH1 0x20 DUP3 ADD SWAP1 POP DUP2 DUP2 SUB PUSH0 DUP4 ADD MSTORE PUSH2 0x36E DUP2 PUSH2 0x335 JUMP JUMPDEST SWAP1 POP SWAP2 SWAP1 POP JUMP INVALID LOG2 PUSH5 0x6970667358 0x22 SLT KECCAK256 SDIV 0xE6 0xE3 PUSH5 0x70468775DA SLT DUP2 0x25 0x2B 0x1F SWAP11 0xC2 PUSH4 0x17EF3D28 0xCB LT BALANCE REVERT PUSH28 0xB1B4CF675AF564736F6C634300081A00330000000000000000000000 "
				},
				"gasEstimates": {
					"creation": {
						"codeDepositCost": "187800",
						"executionCost": "230",
						"totalCost": "188030"
					},
					"external": {
						"getGrade(uint256)": "infinite"
					}
				},
				"methodIdentifiers": {
					"getGrade(uint256)": "e1e0485e"
				}
			},
			"storageLayout": {
				"storage": [],
				"types": null
			},
			"userdoc": {
				"kind": "user",
				"methods": {},
				"version": 1
			}
		}
	}
}